:100000000C9432010C945A010C945A010C94FB018B
:100010000C9425020C944F020C945A010C945A0132
:100020000C945A010C945A010C945A010C945A01E4
:100030000C945A010C945A010C945A010C945A01D4
:100040000C94172A0C945A010C9484190C94D2190C
:100050000C945A010C945A010C945A010C945A01B4
:100060000C945A010C945A0100C2010001001100C5
:1000700011000C0000E100000A002500250021000D
:10008000009600001900390039003600127A00008D
:100090001F004600460044008070000022004D0012
:1000A0004D004A00004B00003600750075007200DC
:1000B000403800004A009C009C0099008025000008
:1000C0007200EC00EC00E900C0120000E900DA0167
:1000D000DA01D70160090000D701B603B603B30304
:1000E000B0040000B3036E076E076B0758020000F0
:1000F0006E07DC0EDC0ED80E2C010000DC0EC11DDC
:10010000C11DBE1D005EBCE2613FDD83C29C7E203E
:10011000A3FD1F419DC3217FFCA2401E5F01E3BDE3
:100120003E6082DC237D9FC1421CFEA0E1BF5D03D7
:1001300080DE3C62BEE0025CDF81633D7C22C09ECB
:100140001D43A1FF4618FAA427799BC584DA3866B7
:10015000E5BB5907DB856739BAE406581947A5FBA3
:100160007826C49A653BD987045AB8E6A7F91B4597
:10017000C6987A24F8A6441A99C7257B3A6486D88B
:100180005B05E7B98CD2306EEDB3510F4E10F2AC77
:100190002F7193CD114FADF3702ECC92D38D6F3163
:1001A000B2EC0E50AFF1134DCE90722C6D33D18F57
:1001B0000C52B0EE326C8ED0530DEFB1F0AE4C124B
:1001C00091CF2D73CA947628ABF517490856B4EA37
:1001D0006937D58B5709EBB536688AD495CB297723
:1001E000F4AA4816E9B7550B88D6346A2B7597C917
:1001F0004A14F6A8742AC896154BA9F7B6E80A540B
:10020000D7896B3500000000240027002A00000079
:100210000000250028002B0000000000230026001D
:100220002900040404040404040402020202020279
:1002300003030303030301020408102040800102AA
:10024000040810200102040810200000000700022A
:100250000100000304060000000000000000601020
:10026000BA1C591011241FBECFEFD8E0DEBFCDBF9E
:1002700013E0A0E0B1E0ECE2FFE602C005900D92D1
:10028000A232B107D9F715E0A2E2B3E001C01D9296
:10029000A931B107E1F712E0C2E6D2E004C022972B
:1002A000FE010E946A37CE35D107C9F70E947C193A
:1002B0000C9489370C940000FC01809122039091EA
:1002C00023038E179F0711F480E00895838D8E7F9E
:1002D000838F9FB7F8941092640380916403809396
:1002E0006503F0932303E09322039FBF81E0089509
:1002F0000F931F93CF93DF93FC01738D76957170ED
:10030000A685B7859585772329F08C91892309F4F3
:1003100054C004C08C91892309F04FC0838994890B
:1003200020E001972FEF8F3F9207D9F7C589D68933
:10033000A685B785158531E060E040E050E000E03B
:10034000CE01202F01972FEF8F3F9207D9F78C9185
:10035000812311F0632B03C0832F80956823330F13
:100360004F5F5F4F4830510559F78789908D20E0E6
:1003700001972FEF8F3F9207D9F771116095809108
:1003800064032091650390E001968F73907030E0D4
:100390008217930779F0E0916403F0E0EC5DFC4F85
:1003A00060838091640390E001968F7390708093D6
:1003B000640303C0838D8160838FDF91CF911F9190
:1003C0000F910895FC01A189B2899089662329F4CF
:1003D0008C91909598239C9308958C91892B8C9364
:1003E0000895DC011E96ED91FC911F9780811D966A
:1003F0009C91892308951F920F920FB60F9211249A
:100400002F933F934F935F936F937F938F939F931C
:10041000AF93BF93EF93FF938091220390912303B7
:10042000009711F00E947801FF91EF91BF91AF9179
:100430009F918F917F916F915F914F913F912F91FC
:100440000F900FBE0F901F9018951F920F920FB62E
:100450000F9211242F933F934F935F936F937F934A
:100460008F939F93AF93BF93EF93FF93809122035A
:1004700090912303009711F00E947801FF91EF9172
:10048000BF91AF919F918F917F916F915F914F91AC
:100490003F912F910F900FBE0F901F9018951F92B4
:1004A0000F920FB60F9211242F933F934F935F93A8
:1004B0006F937F938F939F93AF93BF93EF93FF932C
:1004C0008091220390912303009711F00E947801FC
:1004D000FF91EF91BF91AF919F918F917F916F911C
:1004E0005F914F913F912F910F900FBE0F901F90F2
:1004F0001895CF92DF92EF92FF920F931F93CF93B5
:10050000DF93EC017A018B011A8E198E188E1F8AE7
:100510001E8A1D8A1C8A1B8A20E030E06901CC0CEF
:10052000DD1CC20ED31EB601660F771F660F771F44
:10053000AB0148595F4FFA0185919591A591B4910E
:100540008E159F05A007B107E9F4FB01E459FF4FA1
:10055000859194919C8B8B8BFB01E259FF4F859188
:1005600094919E8B8D8BFB01E059FF4F8591949167
:10057000988F8F8BFB01EE58FF4F859194919A8F46
:10058000898F06C02F5F3F4F2D30310509F0C6CF50
:100590008F89988D892B09F449C04C85463108F024
:1005A0003DC090916800483010F484E005C04E30A2
:1005B00010F082E001C081E0892B80936800483010
:1005C00028F4EDE6F0E0ADE6B0E00BC04E3028F0E8
:1005D000ECE6F0E0ACE6B0E004C0EBE6F0E0ABE661
:1005E000B0E05081483040F481E090E002C0880FD4
:1005F000991F4A95E2F710C0242F30E04E3018F4CE
:100600002850304002C02E50304081E090E002C0BF
:10061000880F991F2A95E2F7852B8C93898D9A8DE7
:1006200020E001972FEF8F3F9207D9F780912203A7
:10063000909123038C179D0781F08B8D8E7F8B8F7C
:100640009FB7F894109264038091640380936503CC
:10065000D0932303C09322039FBFDF91CF911F91BB
:100660000F91FF90EF90DF90CF900895FC014485AB
:10067000463180F5483028F4EDE6F0E0ADE6B0E034
:100680000BC04E3028F4EBE6F0E0ABE6B0E004C07F
:10069000ECE6F0E0ACE6B0E05081483040F481E0B8
:1006A00090E002C0880F991F4A95E2F710C0242FEE
:1006B00030E04E3018F42850304002C02E50304008
:1006C00081E090E002C0880F991F2A95E2F780959B
:1006D00085238C930895FC0184E091E091838083CD
:1006E000CF010E9436030895FC0184E091E09183DC
:1006F0008083CF010E943603089520912203309118
:1007000023032817390731F490916503809164031E
:10071000981719F42FEF3FEF0FC0E0916503F0E059
:10072000EC5DFC4F20818091650390E001968F7312
:1007300090708093650330E0C901089520912203F1
:10074000309123032817390719F020E030E00EC05C
:10075000809164032091650390E0805C9F4F821B31
:10076000910960E470E00E94E8369C01C901089597
:100770000F931F93DC0159968D919C915A97892B69
:1007800049F481E090E013969C938E93129720E0B9
:1007900030E097C00FB7F8945B968C915B975196B9
:1007A000ED91FC91529750962C91509781FF8DC0FE
:1007B0008081822B808359968D919C915A970596C2
:1007C00020E001972FEF8F3F9207D9F75B968C912E
:1007D0005B9781FF35C031E040E050E070E010E011
:1007E000832F90E0862397235196ED91FC915297A9
:1007F00050962C915097892B29F0808120952823A1
:10080000208303C08081822B808359968D919C9197
:100810005A97212F01972FEF8F3F9207D9F7330F68
:100820004F5F5F4F48305105D9F65196ED91FC91DD
:100830005297908150968C9150978095892333C020
:1008400031E040E050E070E010E0832F90E086233C
:1008500097235196ED91FC91529750962C91509779
:10086000892B21F08081822B808304C08081209598
:100870002823208359968D919C915A97212F019777
:100880002FEF8F3F9207D9F7330F4F5F5F4F4830FD
:100890005105D9F65196ED91FC9152978081509671
:1008A0009C915097892B80830FBF59968D919C9175
:1008B0005A9720E001972FEF8F3F9207D9F721E059
:1008C00030E0C9011F910F91089580812095282360
:1008D000208371CF209122033091230328173907F9
:1008E00049F49FB7F8941092640380916403809355
:1008F00065039FBF08952091220330912303281799
:10090000390731F49091650380916403981719F4C5
:100910002FEF3FEF08C0E0916503F0E0EC5DFC4F86
:100920008081282F30E0C90108951F93CF93DF9372
:10093000EC01162F862F60E00E94312B8B8D81FDFC
:1009400004C0812F61E00E94702B1C87212F30E0B2
:10095000C9018A5C9D4FFC0184918D872E5D3D4FBE
:10096000F9016491E62FF0E0EE0FFF1FE85EFD4F06
:10097000859194919F878E87DF91CF911F910895E4
:10098000FF920F931F938C01F62E862F61E00E9439
:10099000312B8F2D61E00E94702B8F2D90E0FC0198
:1009A000EA5CFD4FE491D8015096EC9350978E5D30
:1009B0009D4FFC016491E62FF0E0EE0FFF1FE25F18
:1009C000FD4F8591949152969C938E9351971F91D0
:1009D0000F91FF900895FF920F931F938C01F62EB5
:1009E000FC011382128288EE93E0A0E0B0E08483E1
:1009F0009583A683B78384E091E091838083148AF2
:100A0000138A168A158A108E178A128E118E838D7C
:100A10002170220F8C7F822B838FC801642F0E944C
:100A2000C004C8016F2D0E9495041F910F91FF9083
:100A30000895FF920F931F938C01F62EFC011382F1
:100A4000128288EE93E0A0E0B0E084839583A683D1
:100A5000B78384E091E091838083148A138A168A95
:100A6000158A108E178A128E118E838D2170220F97
:100A70008C7F822B838FC801642F0E94C004C80121
:100A80006F2D0E9495041F910F91FF900895FC0116
:100A9000F894A181B28111969C91119780818095E3
:100AA000982311969C9378940895FC0113861586DB
:100AB000148687E090E012863197009711F0019735
:100AC000FACF0895DC0180E00BC0E82FF0E08D91B3
:100AD00090E0E827F927EC5FFE4FE49161508E2FFC
:100AE000662399F70895CF92DF92EF92FF920F93CA
:100AF0001F93CF93DF937C018B0120E030E060E017
:100B000070E041E0C42E40ECD42E2EC0D901B0706C
:100B1000F701E60FF71F808190E0A827B927ED01C4
:100B2000D070432F5527AF70B070A05EBE4FFE014E
:100B300084E0F695E7958A95E1F7E05EFE4F9C919B
:100B40008081981711F04C255D25CE01F6E0880FC5
:100B5000991FFA95E1F79C01220F331F28273927A7
:100B6000242735276F5F7F4F6017710778F2C9011F
:100B7000DF91CF911F910F91FF90EF90DF90CF9079
:100B80000895CF93DF93EA010E947305BC0160953D
:100B900070959B013070888190E02817390711F01B
:100BA00040E009C040E0272F3327898190E02817D3
:100BB000390709F441E0842FDF91CF910895DF9246
:100BC000EF92FF920F931F93FC01E080018112814D
:100BD000F894F80181818E2981838281DE2CD09462
:100BE0008D21828383E090E00E94EC2AF8018181CC
:100BF0008D2181838AE090E00E94EC2AF801008137
:100C0000789485E390E00E94EC2A80E010E0FF24D5
:100C10000E211F21012B09F081E01F910F91FF9000
:100C2000EF90DF900895EF92FF920F931F93CF9371
:100C3000DF937C0101E010E0C0E0D0E0C7010E943A
:100C4000DF058111102B000F2196C830D105B1F7B7
:100C5000812FDF91CF911F910F91FF90EF90089519
:100C6000CF92DF92EF92FF920F931F93CF93DF9378
:100C70006C017B018A01C0E0D0E008C0C6010E947F
:100C80001306F701EC0FFD1F80832196C017D107D3
:100C9000A8F3DF91CF911F910F91FF90EF90DF901C
:100CA000CF9008951F93CF93DF93FC011081C181F2
:100CB000D281912F909560FF12C0F8948A81892388
:100CC0008A838981812B89838AE090E00E94EC2AC3
:100CD0008A81812B8A83789487E390E011C0F8940D
:100CE0008A8189238A838981812B898381E490E0A9
:100CF0000E94EC2A8A81812B8A83789485E090E097
:100D00000E94EC2ADF91CF911F910895CF92DF923C
:100D1000EF92FF920F931F93CF93DF938C01E42EFA
:100D2000FF24F394C0E0D0E0C62EDD2460E08F2DD8
:100D300090E08C219D21892B09F061E0C8010E947F
:100D40005206FF0C2196C830D10581F7EE20A9F498
:100D5000F894D8011196ED91FC91129791818C91A4
:100D60008095982391831196ED91FC911297928131
:100D70008C918095982392837894DF91CF911F91E5
:100D80000F91FF90EF90DF90CF9008956CEC40E0D2
:100D90000E9486060895EF92FF920F931F93CF93C0
:100DA000DF938C017B0165E540E00E948606C0E090
:100DB000D0E0F701EC0FFD1FC801608140E00E9408
:100DC00086062196C830D105A1F7DF91CF911F91FA
:100DD0000F91FF90EF900895BF92CF92DF92EF9224
:100DE000FF920F931F93CF93DF938C016B017A01D6
:100DF000B22EC0E0D0E009C0F601EC0FFD1FC80123
:100E0000608140E00E9486062196CE15DF05A0F3A2
:100E1000BB20A9F4F894D8011196ED91FC9112979A
:100E200091818C918095982391831196ED91FC91FD
:100E3000129792818C918095982392837894DF9178
:100E4000CF911F910F91FF90EF90DF90CF90BF90C7
:100E50000895DF92EF92FF920F931F93CF93DF934A
:100E6000FC010081C181D281F8948981D02ED09477
:100E70008D21898378941DE7E02EFF24115059F1CC
:100E800082E090E00E94EC2A888190E08E219F21F0
:100E9000892BA1F3F8948A818D218A838981802B03
:100EA0008983789484EF91E00E94EC2AF8948981F8
:100EB0008D21898380E590E00E94EC2A888110E0F2
:100EC00090E0E822F922EF2809F411E0789484EA0E
:100ED00091E00E94EC2A812FDF91CF911F910F9119
:100EE000FF90EF90DF900895AF92BF92DF92EF9264
:100EF000FF920F931F93CF93DF93EC015B018D85DE
:100F0000882309F061C0CE010E942907882329F4B3
:100F10001B861D861C8690E06BC0CE0160EF40E012
:100F20000E94860601E0DD24EE24FF24F394CE0126
:100F30000E94DF05182FCE010E94DF05113019F441
:100F40008130E1F439C0181709F58B85081770F462
:100F500060E0FE01EE0DF11D838190E02F2D30E069
:100F600082239323181619064CF003C060E008177B
:100F700029F0093008F04CC00C874AC0FE01EE0D84
:100F8000F11D83818F29838361E009C0612FFE01F8
:100F9000EE0DF11D9F2D9095838189238383CE01D2
:100FA0000E9452060F5FFF0C19F4E394FF24F394A0
:100FB00087E08E1508F0BBCF013430F0DB86DD20F2
:100FC00011F581E08D871FC01B861D861C8690E071
:100FD000DE0120E030E0F501E20FF31F13968C9163
:100FE000139780832F5F3F4F11962830310599F773
:100FF000892FDF91CF911F910F91FF90EF90DF909C
:10100000BF90AF9008958B818823F1F291E0E0CFFB
:10101000D02EBDCFFF920F931F938C01F62E862FFB
:1010200060E00E94312B8F2D90E0FC01EA5CFD4FC7
:10103000E491D801EC938E5D9D4FFC016491E62F05
:10104000F0E0EE0FFF1FE85EFD4F85919491129640
:101050009C938E9311971B961C921B971D961C9226
:101060001D971C961C92F80187E090E0128631973C
:10107000009711F00197FACF1F910F91FF900895FB
:10108000FF920F931F938C01F62E862F60E00E9433
:10109000312B8F2D90E0FC01EA5CFD4FE491D801EB
:1010A000EC938E5D9D4FFC016491E62FF0E0EE0F16
:1010B000FF1FE85EFD4F8591949112969C938E934D
:1010C00011971B961C921B971D961C921D971C96A0
:1010D0001C92F80187E090E012863197009711F09A
:1010E0000197FACF1F910F91FF900895F999FECFC4
:1010F00072BD61BDF89A80B50895F999FECF1FBA07
:1011000072BD61BD40BD0FB6F894FA9AF99A0FBE50
:101110000895FC0182E899E0928B818B7683658348
:101120001482108289E0818381E082838383089521
:10113000FC0182E899E0928B818B7683658314822F
:10114000108289E0818381E0828383830895FC019A
:1011500084810895FC0181810895FC0162830895D2
:10116000FC0182810895FC0163830895FC01838161
:1011700008956F927F928F929F92AF92BF92CF927B
:10118000DF92EF92FF920F931F93CF93DF93FB01B8
:10119000EA01998180E0288130E0282B392BE08119
:1011A000E23231F0E83221F0E03109F084C04BC086
:1011B0004C814F3329F1403420F44F3109F07BC08A
:1011C0002FC04F3579F04F3709F075C0B901882726
:1011D00077FD8095982F0E947E3020E030E040E837
:1011E0005DE32EC035952795B901882777FD809559
:1011F000982F0E947E3020E030E040E05EE320C087
:101200003595279535952795B901882777FD8095E0
:10121000982F0E947E3020E030E040E85EE310C06E
:1012200093E0359527959A95E1F7B901882777FDE1
:101230008095982F0E947E3020E030E040E05FE310
:101240000E94ED2D32C0EF8035952795B901882792
:1012500077FD8095982F0E947E3020E030E040E8B6
:101260005EE30E948F2D3B014C016E2D70E02E81BC
:10127000621B7109882777FD8095982F0E947E3028
:101280005B016C01FF2400E010E0C801B7010E947F
:1012900030319B01AC01C601B5010E94E72E9B01D4
:1012A000AC01C401B3010E94C02D9B01AC01832F8E
:1012B000942F752F00C0262F382F492F572FB90193
:1012C000CA01DF91CF911F910F91FF90EF90DF90B6
:1012D000CF90BF90AF909F908F907F906F90089528
:1012E000FC0180810895FC018FEF8787108A80E0E0
:1012F00017828F5F31968730D9F70895FC01728B82
:10130000618B0895089526E636E646EE5FE30E9477
:10131000ED2D20E030E040E052E40E94C02D089521
:1013200020E030E040E052E40E948F2D26E636E6D1
:1013300046EE5FE30E94E72E08958F929F92AF9250
:10134000BF92CF92DF92EF92FF920F931F93CF93B2
:10135000DF93EC015B018889882309F072C08D81DD
:101360009E810E942907882309F46BC08D819E818C
:101370006CEE40E00E948606CC24CA94DD24D3940F
:1013800000E010E061E0862E912C8D819E810E940C
:10139000DF05E82E8D819E810E94DF05282F502FCA
:1013A000569556955695C80187709070B40102C045
:1013B000660F771F8A95E2F7462FEE2019F0222359
:1013C000C9F03FC0222309F04FC08F85081711F4E0
:1013D000CF8645C0081760F4262F30E0FE01E50FE8
:1013E000F11D878190E028233923232BC1F53AC0D2
:1013F0000F8739C0FE01E50FF11D8781842B87839C
:101400008D819E816E2D0E9452060F5F1F4F00340A
:10141000110509F0BACFDD2011F081E0888BDE01E3
:1014200020E030E0F501E20FF31F17968C9117973B
:1014300080832F5F3F4F11962830310599F781E067
:1014400001C080E0DF91CF911F910F91FF90EF904D
:10145000DF90CF90BF90AF909F908F900895EE2433
:10146000E394C8CFC02EDD24FE01E50FF11D4095A9
:10147000878148234783C4CFDF93CF93CDB7DEB7AF
:1014800028970FB6F894DEBF0FBECDBFDC018FEFFB
:101490001F968C931F9750961C925097FD0180E0E9
:1014A00017828F5F31968730D9F7CD01BE016F5F0C
:1014B0007F4F0E949D0928960FB6F894DEBF0FBE9D
:1014C000CDBFCF91DF910895EF92FF920F931F93BD
:1014D0008C017B01FC01858196810E942907F8011E
:1014E00085819681B7010E94CB06F801858196819E
:1014F00064EB40E00E948606F801858196810E9497
:10150000DF05F82EF801858196810E94290780E089
:10151000FF2009F481E01F910F91FF90EF90089553
:10152000EF92FF920F931F93CF93DF93EC018B0108
:101530007A018D819E810E9429078D819E81B8014B
:101540000E94CB068D819E816EE440E00E9486065B
:101550008D819E81F701628140E00E9486068D8127
:101560009E81F701638140E00E948606F801808138
:10157000803139F08D819E81F701648140E00E94C5
:1015800086068D819E810E9429078D819E8168E457
:1015900048810E9486068881882331F06AE070E0E5
:1015A00080E090E00E94932A8D819E810E9429070D
:1015B000DF91CF911F910F91FF90EF900895CF92FF
:1015C000DF92EF92FF920F931F938C016B017A01D0
:1015D000FC01858196810E942907F8018581968109
:1015E000B6010E94CB06F801858196816EEB40E042
:1015F0000E948606F801858196810E941306F701F4
:101600008083F801858196810E941306F70181830A
:10161000F801858196810E941306F7018283F80103
:10162000858196810E941306F7018383F8018581E5
:1016300096810E941306F7018483F80185819681C3
:101640000E941306F7018583F801858196810E9427
:101650001306F7018683F801858196810E9413069F
:10166000F7018783F801858196810E941306F701AF
:101670008087F801858196810E9429071F910F912B
:10168000FF90EF90DF90CF900895DF93CF93CDB789
:10169000DEB729970FB6F894DEBF0FBECDBFAE01FF
:1016A0004F5F5F4F0E94DF0A8981811181E0299697
:1016B0000FB6F894DEBF0FBECDBFCF91DF91089576
:1016C000CF92DF92EF92FF920F931F93CF93DF930E
:1016D000EC016B01452BE1F08B818823C9F08881F7
:1016E0008823B1F40E945F2A7B018C01CE0160E067
:1016F00070E00E94450B882359F40E945F2A6E19FE
:101700007F09800B910B6E5E72408040904070F3B9
:10171000F6016081693039F06930A0F06A3041F03B
:101720006B3081F40AC06EE570E080E090E00EC09E
:101730006CEB70E080E090E009C067E771E080E06A
:1017400090E004C06EEE72E080E090E00E94932A88
:10175000DF91CF911F910F91FF90EF90DF90CF908D
:101760000895CF93DF93EC018D819E810E9429071C
:101770008D819E810E94C6068D819E8164E4488190
:101780000E9486068A81882339F0CE012196BE0107
:1017900040E050E00E94600BDF91CF9108950F93DD
:1017A0001F938A010E94DF0AC80168E00E94620557
:1017B00020E0F8019085891709F421E0822F1F911C
:1017C0000F910895CF92DF92EF92FF920F931F93A4
:1017D000DF93CF93CDB7DEB729970FB6F894DEBF6E
:1017E0000FBECDBF8C017B016E010894C11CD11CC2
:1017F000A6010E94CF0B882311F420E00FC0C8017E
:10180000B701A6010E94B9080E94172C8C81861787
:1018100020F420E08B81681708F021E0822F2996C0
:101820000FB6F894DEBF0FBECDBFCF91DF911F91F1
:101830000F91FF90EF90DF90CF900895DF93CF93BB
:10184000CDB7DEB729970FB6F894DEBF0FBECDBF78
:10185000AE014F5F5F4F0E94CF0B882311F481E8E8
:1018600001C08C8129960FB6F894DEBF0FBECDBFA4
:10187000CF91DF910895DF93CF93CDB7DEB729974E
:101880000FB6F894DEBF0FBECDBFAE014F5F5F4F06
:101890000E94CF0B882311F481E801C08B81299627
:1018A0000FB6F894DEBF0FBECDBFCF91DF91089584
:1018B000DF92EF92FF920F931F93DF93CF93CDB7F9
:1018C000DEB729970FB6F894DEBF0FBECDBF8C01EF
:1018D0007B01D42EAE014F5F5F4F0E94CF0B882358
:1018E00061F04D2D4E3708F04DE74C83C801B7012C
:1018F000AE014F5F5F4F0E94900A29960FB6F89491
:10190000DEBF0FBECDBFCF91DF911F910F91FF9032
:10191000EF90DF900895DF92EF92FF920F931F9365
:10192000DF93CF93CDB7DEB729970FB6F894DEBF1C
:101930000FBECDBF8C017B01D42EAE014F5F5F4F38
:101940000E94CF0B882361F04D2D4E3708F04DE7F4
:101950004B83C801B701AE014F5F5F4F0E94900AF1
:1019600029960FB6F894DEBF0FBECDBFCF91DF91A1
:101970001F910F91FF90EF90DF900895CF92DF922B
:10198000EF92FF920F931F93DF93CF93CDB7DEB704
:1019900029970FB6F894DEBF0FBECDBF8C017B0137
:1019A0006E010894C11CD11CA6010E94CF0B882394
:1019B00029F460E070E08EEF92EC05C0C801B70139
:1019C000A6010E94B90829960FB6F894DEBF0FBE93
:1019D000CDBFCF91DF911F910F91FF90EF90DF90DE
:1019E000CF9008950E94BE0C26E636E646EE5FE3F1
:1019F0000E94ED2D20E030E040E052E40E94C02D36
:101A00000895DF93CF93CDB7DEB729970FB6F8943B
:101A1000DEBF0FBECDBF9C01FB0180818031D9F0BC
:101A2000C901AE014F5F5F4F0E94CF0B8823A9F021
:101A30008D818F3371F0803418F48F3171F40BC0C5
:101A40008F3519F08F3749F402C08BE007C08CE066
:101A500005C08AE003C089E001C080E029960FB686
:101A6000F894DEBF0FBECDBFCF91DF910895EF9206
:101A7000FF920F931F93DF93CF93CDB7DEB72A97D3
:101A80000FB6F894DEBF0FBECDBF8C017B01FC0109
:101A9000858196810E942907F80185819681B70189
:101AA0000E94CB06F8018581968164E440810E9402
:101AB0008606C801B701AE014E5F5F4F0E94CF0B93
:101AC000882389F0F8018281882361F0C801B70179
:101AD0000E94010D8983C801BE016F5F7F4FA7017E
:101AE0000E94600B81E02A960FB6F894DEBF0FBE0D
:101AF000CDBFCF91DF911F910F91FF90EF9008958F
:101B0000CF92DF92EF92FF921F93DF93CF93CDB7E7
:101B1000DEB729970FB6F894DEBF0FBECDBF6C01BC
:101B20007B01142FAE014F5F5F4F0E94CF0B8823C4
:101B3000E1F0F70180818031B9F01A3051F01A30AC
:101B400050F01B3021F01C3031F48FE705C08FE5D9
:101B500003C08FE301C08FE18D83C601B701AE01E1
:101B60004F5F5F4F0E94900A81E029960FB6F8946C
:101B7000DEBF0FBECDBFCF91DF911F91FF90EF90E1
:101B8000DF90CF900895DF93CF93CDB7DEB729973D
:101B90000FB6F894DEBF0FBECDBFAE014F5F5F4FF3
:101BA0000E94CF0B29960FB6F894DEBF0FBECDBFB3
:101BB000CF91DF9108950F931F938B01CB0167E0C5
:101BC0000E94620520E0F8019781891709F421E05D
:101BD000822F1F910F910895EF92FF920F931F9301
:101BE000DF93CF93CDB7DEB728970FB6F894DEBF5B
:101BF0000FBECDBF8C018FEFD8011F968C931F971E
:101C000050961C92F80180E017828F5F31968730E2
:101C1000D9F70EC0C801B7010E94DB0D882361F01F
:101C2000D8015196ED91FC915297C701099504C0D6
:101C30007E010894E11CF11CC801B7010E949D09B6
:101C4000882341F728960FB6F894DEBF0FBECDBFAC
:101C5000CF91DF911F910F91FF90EF900895EF9238
:101C6000FF920F931F93CF93DF93EC017B01042F1F
:101C70008D819E810E94550510E007C0CE01B701FD
:101C80000E94DB0D8823A9F00AC08D819E81B701D7
:101C90000E947407882329F0101759F4EFCF81E0D0
:101CA00001C080E0DF91CF911F910F91FF90EF90E5
:101CB00008951F5F0117A8F3E8CFEF92FF920F93EB
:101CC0001F93DF93CF93CDB7DEB728970FB6F89465
:101CD000DEBF0FBECDBF7C01462F8E010F5F1F4FB1
:101CE000B8010E942F0EC701B8010E94BE0C2896B1
:101CF0000FB6F894DEBF0FBECDBFCF91DF911F911D
:101D00000F91FF90EF9008950E945D0E26E636E653
:101D100046EE5FE30E94ED2D20E030E040E052E42B
:101D20000E94C02D0895EF92FF920F931F93DF93AF
:101D3000CF93CDB7DEB728970FB6F894DEBF0FBEAE
:101D4000CDBF8C01462F7E010894E11CF11CB70128
:101D50000E942F0EC801B7010E94370D28960FB6BA
:101D6000F894DEBF0FBECDBFCF91DF911F910F91D1
:101D7000FF90EF900895CF92DF92EF92FF920F9332
:101D80001F93DF93CF93CDB7DEB728970FB6F894A4
:101D9000DEBF0FBECDBF7C01693010F469E003C027
:101DA0006D3008F06CE0F701618300E010E06E0137
:101DB0000894C11CD11C0DC0C701B601402F0E9460
:101DC0002F0EC701B601F70141810E94800D0F5F00
:101DD0001F4FF701848190E0081719076CF32896CC
:101DE0000FB6F894DEBF0FBECDBFCF91DF911F912C
:101DF0000F91FF90EF90DF90CF900895AF92BF9238
:101E0000CF92DF92EF92FF920F931F93DF93CF93C6
:101E1000CDB7DEB761970FB6F894DEBF0FBECDBF6A
:101E20007C01FC01858196810E945505F701148291
:101E30006E010894C11CD11C79E0A72EB12CAC0E08
:101E4000BD1E01E02BC0C701B6010E94DB0D882337
:101E500029F1F7018081882341F4C701B6010E946E
:101E6000640A882311F0F7010083C701B601A501B8
:101E70000E94DF0AF7011181C701B6010E94010D1E
:101E8000811718F4F701818104C0C701B6010E94CF
:101E9000010DF701818384818F5F8483F701858140
:101EA0009681B6010E947407882369F661960FB681
:101EB000F894DEBF0FBECDBFCF91DF911F910F9180
:101EC000FF90EF90DF90CF90BF90AF9008955F921A
:101ED0006F927F928F929F92AF92BF92CF92DF923A
:101EE000EF92FF920F931F935090AC03E52DF0E01B
:101EF000BDEA8B2EB3E09B2EA4E0EE0FFF1FAA9548
:101F0000E1F734016E0E7F1ED3016D937D938D93A7
:101F10009C931397D401AE0FBF1F14962D933D933E
:101F20004D935C9317978E0E9F1EF401E086F18609
:101F300002871387D3011C96AD92BD92CD92DC929D
:101F40001F9753945092AC031F910F91FF90EF9005
:101F5000DF90CF90BF90AF909F908F907F906F90C9
:101F60005F9008952091AC03222339F1E22FF0E035
:101F7000319754E0EE0FFF1F5A95E1F7CF018355DB
:101F80009C4FDC011D921D921D921C921397DF0144
:101F9000AF54BC4F1D921D921D921C921397EB548F
:101FA000FC4F1082118212821382FC011486158666
:101FB0001686178621502093AC03089508956F92DA
:101FC0007F928F929F92AF92BF92CF92DF92EF92C9
:101FD000FF920F931F93DF93CF93CDB7DEB7019797
:101FE000ADEAB3E0E4E0880F991FEA95E1F73D011F
:101FF000680E791EF3014083518362837383FD0170
:10200000E80FF91F0483158326833783A80FB91FB0
:102010001896CD92DD92ED92FC921B97F301848687
:102020009586A686B786CF91DF911F910F91FF907D
:10203000EF90DF90CF90BF90AF909F908F907F9068
:102040006F9008958130910511F56F5F7F4F81F595
:1020500087E693E067E046E020E00E94EB0483E837
:1020600093E06CE00E940A0881E993E063E873E082
:102070000E94980883E594E060E371E00E940627DF
:102080008AE594E065E371E00E9406270895892BB4
:1020900079F46F5F7F4F61F48AE594E00E94F5293F
:1020A00083E594E00E94F52987E693E00E946B03A4
:1020B000089580E090E06FEF7FEF0E942210089576
:1020C00081E090E06FEF7FEF0E94221008958BE097
:1020D00061E00E94312B0E945F2A6093A4037093F9
:1020E000A5038093A6039093A70389EE94E040E8AC
:1020F00055E260E070E00E94951A87E060E00E947F
:10210000312B86E061E00E94312B87E693E040E0CE
:1021100056E960E070E00E94790281E993E00E9454
:10212000FE0E08952F923F924F925F926F927F9290
:102130008F929F92AF92BF92CF92DF92EF92FF92D7
:102140000F931F93DF93CF9300D000D0CDB7DEB7AE
:1021500086E693E060E070E00E9476088093AC032E
:1021600089EE94E066E371E00E945D1F89EE94E0E1
:102170006091AC034AE050E00E94B91E8091AC032C
:10218000882309F460C081E0C82ED12C01E0602EC4
:10219000712C15E0212E312C2C0E3D1E3CC07401FB
:1021A0008E010F5F1F4F86E693E0B7010E9476080D
:1021B000F80181938F010894E11CF11CE215F305ED
:1021C00091F784E090E0880E991E49815A816B81D5
:1021D0007C81F50141935193619371935F0189EE85
:1021E00094E02AE030E00E94561E89EE94E06DE310
:1021F00071E00E945D1FA414B50489F680E190E0AF
:10220000C80ED91E0894611C711C89EE94E065E328
:1022100071E00E945A208091AC0390E086159705EA
:10222000ACF05301B4E0AA0CBB1CBA95E1F7EDE9A0
:10223000F3E0AE0EBF1E4601ACEB4A2EA3E05A2ED1
:102240004C0C5D1CACCFF1E0CF2ED12C86E693E098
:10225000B6010E947608898389819A819093D90179
:102260008093D8010894C11CD11C86E693E0B60186
:102270000E947608898389819A819093DB018093FB
:10228000DA010F900F900F900F90CF91DF911F9177
:102290000F91FF90EF90DF90CF90BF90AF909F9005
:1022A0008F907F906F905F904F903F902F90089508
:1022B0002F923F924F925F926F927F928F929F9256
:1022C000AF92BF92CF92DF92EF92FF921F93DF9374
:1022D000CF9300D000D0CDB7DEB786E693E060E0C4
:1022E00070E04091AC030E947D088091AC0388238C
:1022F00009F464C051E0C52ED12C41E0642E712C4C
:102300001E010894211C311C41C0F501808191817E
:10231000A281B38189839A83AB83BC83EE24FF249B
:10232000B701680D791DF101EE0DFF1D108186E6E4
:1023300093E0412F0E947D0889EE94E0612F4AE0EE
:1023400050E00E94A71E89EE94E06DE371E00E94C8
:102350005D1F0894E11CF11CF4E0EF16F10401F795
:1023600084E090E0880E991EA80EB91EA414B5044E
:1023700061F6E0E1F0E0CE0EDF1E89EE94E06FE35F
:1023800071E00E945A200894611C711C8091AC037A
:1023900090E086159705ACF0530134E0AA0CBB1C05
:1023A0003A95E1F78DE993E0A80EB91E46012CEBB2
:1023B000422E23E0522E4C0C5D1CA7CF91E0C92E7B
:1023C000D12C8091D8019091D901A0E0B0E0482FA4
:1023D00089839A83AB83BC8386E693E0B6010E942F
:1023E0007D088091DA019091DB01A0E0B0E0482FF8
:1023F00089839A83AB83BC830894C11CD11C86E675
:1024000093E0B6010E947D080F900F900F900F90FF
:10241000CF91DF911F91FF90EF90DF90CF90BF9011
:10242000AF909F908F907F906F905F904F903F9074
:102430002F900895FF920F931F93082FF92E65E3B5
:1024400071E00E94062714C087E693E00E949E0375
:10245000892BD1F387E693E00E947D03182F8D30FE
:1024600039F08A3029F0802F9F2D612F0E9410268D
:102470001D3051F704C087E693E00E947D0387E694
:1024800093E00E949E03892BB1F7802F9F2D0E941D
:102490006E21802F9F2D1F910F91FF9008950F9314
:1024A0001F938C0189EE94E0B8010E946D2087E6AD
:1024B00093E0B8010E946D201F910F9108956F92D3
:1024C0007F928F929F92AF92BF92CF92DF92EF92C4
:1024D000FF920F931F93DF93CF93CDB7DEB7C15316
:1024E000D1400FB6F894DEBF0FBECDBF5B016C01CB
:1024F00081E993E00E94B10B81E993E060E00E94E2
:102500005D0E3B014C010E94DC30DC01CB0162E33B
:10251000E62EF12CEC0EFD1EB7014AE050E00E94C1
:102520001436BC018E010F5F1F4FC8010E940627A1
:10253000C8010E944F12C8010E94F5298E01085F50
:102540001F4FC8016DE371E00E940627C8010E9479
:102550004F12C8010E94F529C501B7014AE050E0B9
:102560000E941436BC018E01015F1F4FC8010E94FA
:102570000627C8010E944F12C8010E94F5298E014A
:102580000A5E1F4FC8016DE371E00E940627C80173
:102590000E944F12C8010E94F529C601B5010E9490
:1025A00030319B01AC01C401B3010E9423301816E5
:1025B0005CF120914D0430914E048091D8019091AE
:1025C000D9012817390700F58BE061E00E94702BD4
:1025D0008E01035E1F4FC80161E471E00E9406276F
:1025E000C8010E944F12C8010E94F52980914D0434
:1025F00090914E04019690934E0480934D04109256
:10260000500410924F0426C08BE060E00E94702BB3
:102610008E010C5D1F4FC80163E471E00E94062724
:10262000C8010E944F12C8010E94F52980914F04F1
:102630009091500401969093500480934F04209100
:10264000DA013091DB018217930720F010924E04DB
:1026500010924D048E01055D1F4FC80165E471E0C5
:102660000E940627C8010E944F12C8010E94F52946
:10267000C601B50161507040804090400E943031E9
:102680009B01AC01C401B3010E94C32F87FF02C0AC
:1026900000E016C000E08AE090E0A0E0B0E0A80E04
:1026A000B91ECA1EDB1EC601B5010E9430319B0156
:1026B000AC01C401B3010E94233018160CF001E0F4
:1026C000802FCF5CDE4F0FB6F894DEBF0FBECDBFBC
:1026D000CF91DF911F910F91FF90EF90DF90CF90FE
:1026E000BF90AF909F908F907F906F9008952F92A2
:1026F0003F924F925F926F927F928F929F92AF9292
:10270000BF92CF92DF92EF92FF920F931F93DF93CE
:10271000CF93CDB7DEB7C956D1400FB6F894DEBF20
:102720000FBECDBF0DEA13E091E0E92EF12C8AE651
:10273000C82ED12CCC0EDD1EB4E22B2E312C2C0E4B
:102740003D1EABE24A2E512C4C0E5D1EF2E36F2E65
:10275000712C6C0E7D1EE9E38E2E912C8C0E9D1E2D
:1027600070E4A72EB12CAC0EBD1EA3C0C701B601EC
:102770004AE050E00E941436BC01CE0101960E944E
:102780000627CE0101960E944F12CE0101960E94AB
:10279000F529CE0108966DE371E00E940627CE016F
:1027A00008960E944F12CE0108960E94F529F80162
:1027B00080819181B6014AE050E00E941436BC014C
:1027C000CE010F960E940627CE010F960E944F124F
:1027D000CE010F960E94F529CE0146966DE371E079
:1027E0000E940627CE0146960E944F12CE014696C1
:1027F0000E94F529F80184819581B6014AE050E0F4
:102800000E941436BC01CE014D960E940627CE01CF
:102810004D960E944F12CE014D960E94F529C1019E
:102820006DE371E00E940627C1010E944F12C101B1
:102830000E94F529F80180859185B6014AE050E0B3
:102840000E941436BC01C2010E940627C2010E94E8
:102850004F12C2010E94F529C3016DE371E00E948D
:102860000627C3010E944F12C3010E94F529F801F7
:1028700084859585B6014AE050E00E941436BC017B
:10288000C4010E940627C4010E944F12C4010E9485
:10289000F529C5016FE371E00E940627C5010E947A
:1028A0004F12C5010E94F5290894E11CF11C005F3C
:1028B0001F4F8091AC0390E08E159F050CF056CF12
:1028C0008E01095B1F4FC80168E471E00E94062772
:1028D000C8010E944F12C8010E94F5298091D801B9
:1028E0009091D901B6014AE050E00E941436BC0133
:1028F0008E01025B1F4FC8010E940627C8010E947B
:102900004F12C8010E94F5298E010B5A1F4FC801B2
:102910006EE471E00E940627C8010E944F12C801B0
:102920000E94F5298091DA019091DB01B6014AE01D
:1029300050E00E941436BC018E01045A1F4FC8019A
:102940000E940627C8010E944F12C8010E94F52963
:102950008E010D591F4FC8016FE371E00E940627D9
:10296000C8010E944F12C8010E94F529C759DE4FC5
:102970000FB6F894DEBF0FBECDBFCF91DF911F9190
:102980000F91FF90EF90DF90CF90BF90AF909F900E
:102990008F907F906F905F904F903F902F90089511
:1029A0000F931F93DF93CF93CDB7DEB727970FB663
:1029B000F894DEBF0FBECDBF8E010F5F1F4FC80161
:1029C00062E571E00E940627C8010E944F12C8010B
:1029D0000E94F52987E693E00E949E03009721F06C
:1029E00087E693E00E947D0390E0893709F491E047
:1029F000892F27960FB6F894DEBF0FBECDBFCF91BB
:102A0000DF911F910F9108954F925F926F927F9285
:102A10008F929F92AF92BF92CF92DF92EF92FF92EE
:102A20000F931F93DF93CF93CDB7DEB7C654D1403A
:102A30000FB6F894DEBF0FBECDBF4C018091AC0342
:102A400090E0881599050CF471C174010894E108AF
:102A5000F10864E0EE0CFF1C6A95E1F751EBA52E3E
:102A600053E0B52EAE0CBF1CF50140805180628052
:102A7000738047E4C42ED12CCC0EDD1EC401B601F8
:102A80004AE050E00E941436BC018E010F5F1F4FD8
:102A9000C8010E940627C8010E944F12C8010E9467
:102AA000F5298E01085F1F4FC8016DE371E00E9498
:102AB0000627C8010E944F12C8010E94F529F5019E
:102AC00080819181B6014AE050E00E941436BC0139
:102AD0008E01015F1F4FC8010E940627C8010E9496
:102AE0004F12C8010E94F5298E010A5E1F4FC801CE
:102AF0006DE371E00E940627C8010E944F12C801D1
:102B00000E94F5296091A8037091A9038091AA03FE
:102B10009091AB0320E63AEE40E050E00E94FB3695
:102B2000DA01C901B6014AE050E00E941436BC0146
:102B30008E01035E1F4FC8010E940627C8010E9434
:102B40004F12C8010E94F5298E010C5D1F4FC8016C
:102B50006DE371E00E940627C8010E944F12C80170
:102B60000E94F5298DEA93E0E80EF91EF701008135
:102B7000118184859585A685B7850197A105B10545
:102B800069F480915204882349F00E94D01488236C
:102B900019F00894811C911C00E010E089EE94E08B
:102BA000B4014AE050E00E943E1FB801882777FD3B
:102BB0008095982F0E945F12882309F4ACC089EE9B
:102BC00094E0B8014AE050E00E943E1F0E945F2A54
:102BD000E090A803F090A9030091AA031091AB0321
:102BE0002091A4033091A5034091A6035091A7031F
:102BF000E21AF30A040B150BE60EF71E081F191F45
:102C0000E092A803F092A9030093AA031093AB03E8
:102C10006093A4037093A5038093A6039093A703E6
:102C2000C301B20120E63AEE40E050E00E94C9360E
:102C30006E157F058007910708F086C0F40124E037
:102C4000EE0FFF1F2A95E1F7EB55FC4F8081918134
:102C5000A281B3810097A105B10551F00197A105AB
:102C6000B10509F090C00E94D014882309F48BC0EC
:102C700081E08093510480915104882309F464C059
:102C80001092A8031092A9031092AA031092AB030A
:102C90000E945F2A6093A4037093A5038093A60308
:102CA0009093A7030894811C911C8E01055D1F4F12
:102CB000C8016FE571E00E940627C8010E944F120B
:102CC000C8010E94F529C401BE01695B7F4F4AE03B
:102CD00050E00E941436BC018E010E5C1F4FC801EB
:102CE0000E940627C8010E944F12C8010E94F529C0
:102CF0008E01075C1F4FC80165E471E00E94062742
:102D0000C8010E944F12C8010E94F5291092510477
:102D10001092520419C00E945F2A6093A40370931A
:102D2000A5038093A6039093A7030EC08E01005CB9
:102D30001F4FC80166E671E00E940627C8010E9485
:102D40004F12C8010E94F52968EE73E080E090E020
:102D50000E94932AC401CA5BDE4F0FB6F894DEBF0F
:102D60000FBECDBFCF91DF911F910F91FF90EF90DC
:102D7000DF90CF90BF90AF909F908F907F906F909B
:102D80005F904F90089581E08093520474CF2F920A
:102D90003F924F925F926F927F928F929F92AF92EB
:102DA000BF92CF92DF92EF92FF920F931F93DF9328
:102DB000CF93CDB7DEB7CC58D0400FB6F894DEBF76
:102DC0000FBECDBF83E594E061E771E00E94F6227B
:102DD000882309F066C0E2E3CE2ED12CCC0EDD1E96
:102DE000C6010E941A120E945F2A6093A403709386
:102DF000A5038093A6039093A7031092A8031092B3
:102E0000A9031092AA031092AB03C60165E371E017
:102E10000E94F622882309F040C08E010F5F1F4FE9
:102E2000C80167E771E00E940627C601B8010E9449
:102E300044227C01C8010E94F5291E141F0444F598
:102E40008E01085F1F4FC801B60140E050E09701B6
:102E50000E94752983E594E0B8010E94C829C80141
:102E60000E94F5298E01015F1F4F0894E11CF11C9F
:102E70002EA93FA9C801B601A7010E9475298AE5BC
:102E800094E0B8010E94C829C8010E94F52905C034
:102E900083E594E0B6010E94C829CE01C2960E9443
:102EA000F52983E594E060E371E00E94F62288232F
:102EB00031F00E9477138E010A5E1F4F5BC183E5DC
:102EC00094E06EE771E00E94F622882309F0E5C1E4
:102ED00083E594E063E871E00E94F622882399F08C
:102EE0008E010E5C1F4FC8016AE574E00E94DF2965
:102EF000C8010E9407217093D9016093D8017DE138
:102F0000E72EF12C1AC083E594E06BE871E00E9493
:102F1000F622882331F18E010E5C1F4FC8016AE54D
:102F200074E00E94DF29C8010E9407217093DB0131
:102F30006093DA0164E2E62EF12CEC0EFD1EC7016F
:102F400069E771E00E940627C7010E944F12C7017E
:102F50000E94F52983E594E065E371E00E943A2739
:102F6000AEC183E594E063E971E00E94F622882314
:102F700009F4CAC08E01055D1F4FC8016DE371E001
:102F80000E9406278AE594E0B8010E9444227C0151
:102F9000C8010E94F529CE01C2966AE574E040E0BE
:102FA00050E097010E9475298E01075C1F4FC801F0
:102FB0006DE371E00E9406270894E11CF11C8AE58C
:102FC00094E0B801A7010E9426226C01C8010E946A
:102FD000F529CE01805C9F4F6AE574E0A701960158
:102FE0000E9475298E01095B1F4FC8016DE371E0D6
:102FF0000E9406270894C11CD11C8AE594E0B80100
:10300000A6010E9426227C01C8010E94F5295EE4E7
:10301000252E312C2C0E3D1EC1016AE574E0A6015F
:1030200097010E94752945E5442E512C4C0E5D1EDA
:103030000894E11CF11C20915E0430915F04C201F0
:103040006AE574E0A7010E947529CE01C2960E942C
:1030500007217B018C01CE01805C9F4F0E940721DC
:103060005B016C01C1010E9407213B014C01C201BF
:103070000E9407212091AC03E22FF0E034E0EE0F34
:10308000FF1F3A95E1F7AF0143555C4FDA01ED922E
:10309000FD920D931C931397DF01AF54BC4FAD927B
:1030A000BD92CD92DC921397EB54FC4F60827182FB
:1030B00082829382FA0164877587868797872F5F5C
:1030C0002093AC038E01045A1F4FC80169E771E0D9
:1030D0000E940627C8010E944F12C8010E94F529CC
:1030E00083E594E065E371E00E943A27C2010E9403
:1030F000F529C1010E94F529CE01805C9F4F0E94F5
:10310000F529CE01C296DCC083E594E06CE971E05C
:103110000E94F6228823D1F12091AC03222339F1B9
:10312000E22FF0E03197B4E0EE0FFF1FBA95E1F720
:10313000CF0183559C4FDC011D921D921D921C9264
:103140001397DF01AF54BC4F1D921D921D921C922C
:103150001397EB54FC4F1082118212821382FC01F0
:10316000148615861686178621502093AC038E018F
:103170000D591F4FC80169E771E00E940627C80179
:103180000E944F12C8010E94F52987C083E594E090
:1031900065EA71E00E94F622882321F08E0106592B
:1031A0001F4FE8CF83E594E061EB71E00E94F622C7
:1031B0008823F1F0EDE9F3E010821182128213828C
:1031C0001092A1031092A2031092A3031092A403E1
:1031D0001092A5031092A6031092A7031092A803C1
:1031E00014861586168617868E010F581F4FC2CF7C
:1031F00083E594E06DEB71E00E94F622882331F0C4
:103200000E9492108E0108581F4FB4CF83E594E0BE
:1032100062EC71E00E94F622882331F00E9458117E
:103220008E0101581F4FA6CF83E594E067EC71E053
:103230000E94F6228823C9F08AE594E00E940721C3
:10324000DC01CB019093D7018093D6010E94041535
:103250009093D7018093D60183E594E061E771E014
:103260000E943A278AE594E01AC083E594E061E77A
:1032700071E00E94F6228823B9F08091D6019091E6
:10328000D7010E9404159093D7018093D601209115
:10329000AC0330E028173907ACF483E594E065E32C
:1032A00071E00E943A270EC08E010A571F4FC801D5
:1032B00060ED71E00E940627C8010E944F12C8010C
:1032C0000E94F529C457DF4F0FB6F894DEBF0FBE3A
:1032D000CDBFCF91DF911F910F91FF90EF90DF90C5
:1032E000CF90BF90AF909F908F907F906F905F90A6
:1032F0004F903F902F9008950E94F62A0E946710E9
:103300000E94C716FDCF08951F920F920FB60F921D
:1033100011242F933F934F938F939F93EF93FF939A
:103320008091C00082FD1DC04091C6002091A10483
:103330003091A2042F5F3F4F2F7330708091A30410
:103340009091A4042817390771F0E091A104F0913D
:10335000A204EF59FB4F40833093A2042093A104B1
:1033600002C08091C600FF91EF919F918F914F9184
:103370003F912F910F900FBE0F901F901895E091E5
:10338000F504F091F604E05CFF4F8191919120816A
:103390003181821B930B8F739070892B11F00E94E7
:1033A000831908951F920F920FB60F9211242F9335
:1033B0003F938F939F93EF93FF932091E504309178
:1033C000E6048091E7049091E8042817390731F466
:1033D0008091C1008F7D8093C10014C0E091E7040B
:1033E000F091E804EB55FB4F20818091E704909128
:1033F000E80401968F7390709093E8048093E7043B
:103400002093C600FF91EF919F918F913F912F9153
:103410000F900FBE0F901F9018958F929F92AF92B2
:10342000BF92CF92DF92EF92FF920F931F93DF93A1
:10343000CF93CDB7DEB7FC011382128288EE93E002
:10344000A0E0B0E084839583A683B78380EE91E00B
:10345000918380837587648757874687318B208B5C
:10346000138B028BF58AE48AD78AC68AB18EA08E26
:10347000938E828E8F85848F8889858F8989868FA8
:103480008A89878F8B8980A3CF91DF911F910F91BC
:10349000FF90EF90DF90CF90BF90AF909F908F9074
:1034A00008958F929F92AF92BF92CF92DF92EF9248
:1034B000FF920F931F93DF93CF93CDB7DEB7FC013D
:1034C0001382128288EE93E0A0E0B0E084839583BB
:1034D000A683B78380EE91E09183808375876487AC
:1034E00057874687318B208B138B028BF58AE48AB2
:1034F000D78AC68AB18EA08E938E828E8F85848F56
:103500008889858F8989868F8A89878F8B8980A30F
:10351000CF91DF911F910F91FF90EF90DF90CF90AF
:10352000BF90AF909F908F900895AF92BF92DF921F
:10353000EF92FF920F931F93CF93DF93EC017A01E9
:103540008B01DD24403081EE580780E0680780E081
:10355000780711F0DD24D39491E0A92EB12CEC89E9
:10356000FD89DD2069F0C50108A002C0880F991F00
:103570000A94E2F7808360E079E08DE390E005C093
:10358000108260E874E88EE190E0A80197010E9443
:10359000FB36215030404040504056954795379576
:1035A000279580E12030380720F0DD2011F0DD2460
:1035B000D6CFE889F9893083EA89FB89208319A26B
:1035C000EE89FF89408121E030E0C9010C8C02C006
:1035D000880F991F0A94E2F7482B4083EE89FF89F0
:1035E0004081C9010D8C02C0880F991F0A94E2F72F
:1035F000482B4083EE89FF894081C9010E8C02C0AF
:10360000880F991F0A94E2F7482B4083EE89FF89BF
:1036100080810F8C02C0220F331F0A94E2F720959D
:1036200028232083DF91CF911F910F91FF90EF907E
:10363000DF90BF90AF900895AF92BF92CF92DF928C
:10364000EF92FF920F931F93CF93DF93EC017A01D8
:103650008B01C22EDD24403081EE580780E06807E0
:1036600080E0780711F0DD24D39471E0A72EB12C0F
:10367000EC89FD89DD2069F0C50108A002C0880F32
:10368000991F0A94E2F7808360E079E08DE390E08F
:1036900005C0108260E874E88EE190E0A80197010F
:1036A0000E94FB362150304040405040569547958F
:1036B0003795279580E12030380720F0DD2011F084
:1036C000DD24D6CFE889F9893083EA89FB89208314
:1036D000E88DF98DC082EE89FF89408121E030E0DC
:1036E000C9010C8C02C0880F991F0A94E2F7482B7D
:1036F0004083EE89FF894081C9010D8C02C0880F8B
:10370000991F0A94E2F7482B4083EE89FF89408194
:10371000C9010E8C02C0880F991F0A94E2F7482B4A
:103720004083EE89FF8980810F8C02C0220F331FF6
:103730000A94E2F7209528232083DF91CF911F91EF
:103740000F91FF90EF90DF90CF90BF90AF900895D2
:10375000CF93DF93DC011E968D919C911F97EC0116
:10376000C05CDF4FFC01EE5BFF4F28813981808117
:10377000918128173907C9F75696ED91FC91579713
:10378000408121E030E0C9015C960C905C9702C05A
:10379000880F991F0A94E2F78095842380835696B8
:1037A000ED91FC9157974081C9015D960C905D9712
:1037B00002C0880F991F0A94E2F7809584238083C2
:1037C0005696ED91FC9157974081C9015E960C90F9
:1037D0005E9702C0880F991F0A94E2F780958423B0
:1037E00080835696ED91FC91579780815F960C905F
:1037F0005F9702C0220F331F0A94E2F72095282317
:1038000020831C96ED91FC911D97EE5BFF4F80810C
:10381000918192938293DF91CF910895DC011C9660
:10382000ED91FC911D97E05CFF4F219131918081DA
:103830009181281B390B2F733070C9010895DC0169
:103840001C96ED91FC911D97E05CFF4F208131812A
:10385000E054F040DF01AE5BBF4F8D919C9111971A
:103860002817390719F42FEF3FEF07C08D919C916E
:10387000E80FF91F8081282F30E0C9010895DC018D
:103880001C96ED91FC911D97E05CFF4F20813181EA
:10389000E054F040DF01AE5BBF4F8D919C911197DA
:1038A0002817390719F42FEF3FEF10C08D919C9125
:1038B0001197E80FF91F20818D919C911197019626
:1038C0008F73907011969C938E9330E0C901089588
:1038D000DC0191968C919197882339F05496ED9163
:1038E000FC915597808186FFF9CF91961C9208959F
:1038F000CF93DF93EC01EE85FF85E05CFF4F2081E5
:103900003181E054F0402F5F3F4F2F733070DF0163
:10391000AE5BBF4F8D919C91119728173907D1F35A
:10392000E05CFF4F80819181E054F040E80FF91F87
:103930006083EE85FF85E05CFF4F31832083EE8955
:10394000FF89208181E090E00F8C02C0880F991FD1
:103950000A94E2F7282B208381E089A3EC89FD8972
:1039600080818064808381E090E0DF91CF91089531
:1039700081E008951092EC041092EB0488EE93E03D
:10398000A0E0B0E08093ED049093EE04A093EF04E8
:10399000B093F00480EE91E09093EA048093E90400
:1039A00081E694E09093F6048093F50485EA94E030
:1039B0009093F8048093F70485EC90E09093FA04D8
:1039C0008093F90484EC90E09093FC048093FB04D2
:1039D00080EC90E09093FE048093FD0481EC90E0F5
:1039E000909300058093FF0482EC90E09093020591
:1039F0008093010586EC90E0909304058093030585
:103A000084E08093050583E08093060587E080933A
:103A1000070585E08093080581E0809309050895F6
:103A2000CF92DF92EF92FF920F931F93CF93DF938A
:103A30007C016B018A01C0E0D0E00FC0D6016D911E
:103A40006D01D701ED91FC910190F081E02DC7014E
:103A50000995C80FD91F015010400115110571F7C4
:103A6000CE01DF91CF911F910F91FF90EF90DF90EA
:103A7000CF900895EF92FF920F931F93CF93DF9310
:103A80007C018B01C0E0D0E0F8010F5F1F4F649113
:103A9000662359F0D701ED91FC910190F081E02D62
:103AA000C7010995C80FD91FEFCFCE01DF91CF9184
:103AB0001F910F91FF90EF900895DC01ED91FC9123
:103AC0000190F081E02D099508959C01DB01ED91B5
:103AD000FC910190F081E02DCB01B9010995089589
:103AE000EF92FF920F931F938C01DC01ED91FC91FB
:103AF0000190F081E02D6DE009957C01D801ED91F8
:103B0000FC910190F081E02DC8016AE009959C01CB
:103B10002E0D3F1DC9011F910F91FF90EF90089549
:103B2000EF92FF920F931F937C010E943A1D8C012C
:103B3000C7010E94701D9C01200F311FC9011F91F8
:103B40000F91FF90EF900895EF92FF920F931F93C4
:103B50007C01DC01ED91FC910190F081E02D099553
:103B60008C01C7010E94701D080F191FC8011F9109
:103B70000F91FF90EF900895EF92FF920F931F9394
:103B80007C01DB01ED91FC910190F081E02DCB01F6
:103B9000B70109958C01C7010E94701D080F191FFC
:103BA000C8011F910F91FF90EF900895CF93DF937D
:103BB000EC016115710519F420E030E00FC0DB0164
:103BC0000D900020E9F71197A61BB70BE881F9814A
:103BD0000280F381E02DAD0109959C01C901DF91BF
:103BE000CF9108954F925F927F928F929F92AF9262
:103BF000BF92CF92DF92EF92FF920F931F93DF93CA
:103C0000CF93CDB7DEB7A1970FB6F894DEBF0FBE46
:103C1000CDBF2C01742ECB01223008F42AE019A26A
:103C200031E2C32ED12CCC0EDD1E822E9924AA2483
:103C3000BB24672D752FA50194010E94FB367901E5
:103C40008A01C801B701A50194010E94C936472D18
:103C5000461B0894C108D1084A3010F4405D01C0E9
:103C6000495CF6014083E114F1040105110521F0DE
:103C70007E2C5F2DC801DDCFC201B6010E94D61D8A
:103C8000A1960FB6F894DEBF0FBECDBFCF91DF91E6
:103C90001F910F91FF90EF90DF90CF90BF90AF906A
:103CA0009F908F907F905F904F900895DC01211539
:103CB000310541F4ED91FC910190F081E02D642FEC
:103CC000099508950E94F21D0895EF92FF920F93B7
:103CD0001F937C010E94561E8C01C7010E94701D1B
:103CE0009C01200F311FC9011F910F91FF90EF9090
:103CF0000895EF92FF920F931F939A017B0100E0CA
:103D000010E0B801A7010E94561E1F910F91FF906D
:103D1000EF900895CF92DF92EF92FF920F931F934F
:103D20006C017B019A0100E010E0B801A7010E943C
:103D3000561E8C01C6010E94701D080F191FC80174
:103D40001F910F91FF90EF90DF90CF900895EF9229
:103D5000FF920F931F939A01E62EFF2400E010E0DC
:103D6000B801A7010E94561E1F910F91FF90EF907E
:103D70000895CF92DF92EF92FF920F931F936C0101
:103D8000E62E9A01FF2400E010E0B801A7010E948E
:103D9000561E8C01C6010E94701D080F191FC80114
:103DA0001F910F91FF90EF90DF90CF900895CF92E9
:103DB000DF92EF92FF920F931F93CF93DF93EC016B
:103DC0006A017B012115310541F4E881F9810190F7
:103DD000F081E02D642F09951FC02A303105D1F400
:103DE00077FF17C0E881F9810190F081E02D6DE245
:103DF00009958C0144275527BA014C195D096E09B4
:103E00007F09CE012AE00E94F21D9801280F391F78
:103E100004C02AE00E94F21D9C01C901DF91CF91EC
:103E20001F910F91FF90EF90DF90CF900895EF9248
:103E3000FF920F931F937C010E94D71E8C01C70134
:103E40000E94701D9C01200F311FC9011F910F910D
:103E5000FF90EF900895EF92FF920F931F937B01D5
:103E60009A010027F7FC0095102FB801A7010E94C6
:103E7000D71E1F910F91FF90EF900895CF92DF9280
:103E8000EF92FF920F931F936C017B019A01002721
:103E9000F7FC0095102FB801A7010E94D71E8C01D6
:103EA000C6010E94701D080F191FC8011F910F91B4
:103EB000FF90EF90DF90CF9008950E94D61D089557
:103EC0007F928F929F92AF92BF92CF92DF92EF92AA
:103ED000FF920F931F93CF93DF934C017A018B01D5
:103EE000722ECB01BA01A80197010E94533088239A
:103EF00021F0C4016CEF71E021C0C0E0D0E05701B7
:103F00006801E894D7F8C601B5012FEF3FEF4FE7FE
:103F10005FE70E945330882351F4C601B5012FEFAB
:103F20003FEF4FE75FE70E942330181614F0C1E01F
:103F3000D0E0219739F0C40160E072E00E94D61D04
:103F4000EC0193C0C801B7012FEF3FEF4FE75FE4EB
:103F50000E94932F181654F0C801B7012FEF3FEFBE
:103F60004FE75FEC0E94F32F882324F4C40164E040
:103F700072E0E4CFC801B70120E030E040E050E05B
:103F80000E94F32F87FD03C0C0E0D0E00EC0D40133
:103F9000ED91FC910190F081E02DC4016DE2099555
:103FA000EC0117FB109517F9109520E030E040E088
:103FB0005FE3DD240BC0CA01B90120E030E040E23C
:103FC00051E40E94E72E9B01AC01D394D71498F3DF
:103FD000C801B7010E94C02D5B016C010E94172C23
:103FE0007B018C01C401B801A7012AE030E00E94E6
:103FF000561EC80FD91F772039F0C40168E072E05F
:104000000E94D61DC80FD91FC801B7010E943031C8
:104010009B01AC01C601B5010E948F2D24C020E098
:1040200030E040E251E40E94ED2D7B018C010E94C2
:10403000DC305B016C01CC24B7FCC094DC2CC401E7
:10404000B601A5012AE030E00E94D71EC80FD91F93
:10405000C601B5010E947E309B01AC01C801B701C9
:104060000E948F2D7A947720D1F6CE01DF91CF91E7
:104070001F910F91FF90EF90DF90CF90BF90AF9086
:104080009F908F907F9008950E94601F0895EF92F7
:10409000FF920F931F937C010E94601F8C01C70148
:1040A0000E94701D080F191FC8011F910F91FF90EA
:1040B000EF900895EF92FF920F931F937C010E945F
:1040C000D61D8C01C7010E94701D080F191FC80161
:1040D0001F910F91FF90EF900895AF92BF92CF92F2
:1040E000DF92EF92FF920F931F93CF93DF935C01C8
:1040F0006B01EE24FF24C0E0D0E010C0D501ED91AB
:10410000FC9100811181C601BE010E94E720682F49
:10411000C501F8010995E80EF91E2196F601848182
:104120009581C817D90750F3C701DF91CF911F912F
:104130000F91FF90EF90DF90CF90BF90AF900895D8
:10414000EF92FF920F931F937C010E946D208C01D0
:10415000C7010E94701D9C01200F311FC9011F91D2
:104160000F91FF90EF900895FC018481958168176D
:10417000790748F40190F081E02D309721F0E60FA7
:10418000F71F8081089580E00895FC018481958166
:104190006817790730F40190F081E02DE60FF71FE2
:1041A00040830895FC019B018481958168177907FC
:1041B00028F4608171816115710529F410920B0555
:1041C0006BE075E002C0620F731FCB010895FC0124
:1041D000848195816817790748F40190F081E02D7A
:1041E000309721F0E60FF71F8081089580E0089551
:1041F000FC010190F081E02D309729F40895861795
:1042000009F44083319680818823C9F70895FC0121
:1042100080819181009729F420E030E040E050E077
:1042200004C00E9475359B01AC01B901CA01089513
:10423000CF92DF92EF92FF920F931F93CF93DF9372
:104240006C01DC01ED90FC901197E114F104E9F1AF
:104250001496CD91DC9115972097B9F1870102C092
:104260000F5F1F4FF801808190E00E946E37892B0D
:10427000B9F72197CE0DDF1D01C02197888190E00D
:104280000E946E37892B19F0C017D107B0F7FE01D5
:104290003196E01BF10BD6011596FC93EE93149723
:1042A0002D913C912017310728F4C901B801AF01C5
:1042B0000E949C35D601ED91FC91119714968D9139
:1042C0009C911597E80FF91F1082DF91CF911F91F4
:1042D0000F91FF90EF90DF90CF900895CF93DF93F1
:1042E000FC01C081D181209729F407C090E00E9491
:1042F0007E37899388818823C9F7DF91CF9108950C
:10430000CF93DF93FC01C081D181209729F407C0AE
:1043100090E00E947637899388818823C9F7DF91DE
:10432000CF910895EF92FF920F931F93CF93DF9356
:10433000FC01DB018617970719F12481358114965A
:104340008D919C91159728173907E1F4232BC1F023
:10435000E080F180CD91DC910FC090E00E94763733
:104360008C01888190E00E9476370817190751F474
:104370000894E11CF11C2196F7018081882369F7DC
:1043800081E001C080E0DF91CF911F910F91FF90FC
:10439000EF900895AF92BF92CF92DF92EF92FF928B
:1043A0000F931F93CF93DF93FC015B017A01DB0135
:1043B00014962D913C9115972115310559F1848161
:1043C0009581009739F18217930720F14817590713
:1043D00020F07C010894E108F10800811181C801F6
:1043E000CFEFDFEF6801CE0CDF1C10C0F50160815C
:1043F00071810E94FA359C01009771F0801B910B2E
:10440000E816F90608F0EC01C9010196C816D906AC
:1044100068F702C0CFEFDFEFCE01DF91CF911F91A0
:104420000F91FF90EF90DF90CF90BF90AF900895E5
:10443000FC01DB014481558114968D919C91159767
:10444000481B590BCF010E94CA210895CF93DF93D7
:10445000FC01DB01848195814817590760F4C08114
:10446000D1816D917C91CE01840F951F0E94FA3508
:104470009C01009719F42FEF3FEF02C02C1B3D0B5E
:10448000C901DF91CF91089540E050E00E942622BB
:104490000895DF92EF92FF920F931F93CF93DF93D4
:1044A000EC018C819D8148175907B8F47A01089472
:1044B000E11CF11CE881F981EE0DFF1DD080108216
:1044C00008811981C80170E00E94EF359C010E0D32
:1044D0001F1DF801D082009719F4EFEFFFEF05C020
:1044E00088819981F901E81BF90BCF01DF91CF9108
:1044F0001F910F91FF90EF90DF900895FC01448190
:104500005581415050400E9449220895CF93DF9336
:10451000FC01848195814817590758F4C081D181E5
:10452000CE01840F951F70E00E94B7359C01009763
:1045300019F42FEF3FEF02C02C1B3D0BC901DF9197
:10454000CF91089540E050E00E94862208950F9395
:104550001F93CF93DF93FC018B0141155105F9F0B7
:1045600061157105E1F0848195812817390718F0EC
:10457000FB01108214C041505040EC01C21BD30B10
:104580004C175D0708F4EA0160817181620F731FA7
:10459000C801AE010E94E035C00FD11F1882DF9123
:1045A000CF911F910F910895FC01DB01248135818A
:1045B00014964D915C91159724173507A8F08081CA
:1045C0009181009789F06D917C916115710561F081
:1045D000241B350B820F931F0E94C2359C0180E083
:1045E000232B19F481E0089580E00895DC01FB019C
:1045F00014968D919C911597892B31F46115710555
:10460000A9F090E0808108C00D90BC91A02D6115AB
:10461000710529F490E08C91882349F407C0CD01FD
:104620000E94C2359C0190E0232B09F491E0892F70
:104630000895CF93DF939C01FB01EC01A881B98120
:10464000109729F06081718161157105D1F4C081E5
:10465000D181209759F084819581892B39F0888107
:1046600090E022273327281B390B12C0109771F0D6
:10467000F90184819581892B49F08C91282F30E0B4
:1046800007C0CD010E94C2359C0102C020E030E08D
:10469000C901DF91CF9108950E941923892F809538
:1046A000881F8827881F08950E94192320E0181664
:1046B00019060CF021E0822F08950E94192320E0B2
:1046C000181619060CF421E0822F08950E94192370
:1046D000892F881F8827881F0895FC01DB0124810A
:1046E000358114968D919C9115972817390711F0F3
:1046F00020E007C0CF010E94192320E0892B09F494
:1047000021E0822F0895FC01DB0114962D913C914C
:10471000159784819581821B930B84179507A0F0D0
:1047200080819181009781F06D917C916115710577
:1047300059F0840F951FA9010E94D2359C0180E099
:10474000232B19F481E0089580E00895FC01DB013A
:104750002481358114968D919C91159728173907DE
:1047600010F480E00895CF0140E050E00E948323E0
:1047700008950F931F93CF93DF93EC018B016F5F2D
:104780007F4F888199810E94A034009711F480E0C6
:1047900005C0998388831B830A8381E0DF91CF91D1
:1047A0001F910F9108952F923F924F925F926F92B7
:1047B0007F928F929F92AF92BF92CF92DF92EF92B1
:1047C000FF920F931F93CF93DF935C012B014A015C
:1047D000DC0114960D911C9115970115110509F432
:1047E000D4C0FB01C480D580C114D10409F4CDC06C
:1047F000DA0114966D907C9015976C187D08FC0179
:10480000E080F1806114710491F01BC0D4016C91BF
:1048100011967C91119714964D915C9115978C2F60
:104820000E949C35F401E480F580EC0EFD1ED2015F
:104830006D917C91C7010E94FA35EC01009731F728
:10484000A4C077FE02C067012EC0FB01208031802A
:10485000E8013CC08E010E191F09C601B701A8016D
:104860000E949C350C0D1D1DD4016C9111967C91FC
:10487000119714964D915C911597C8010E949C3533
:10488000F401C480D580C00ED11ED2011496ED90E3
:10489000FC901597EC0EFD1EF50184819581860D27
:1048A000971D95838483D2016D917C91C7010E94ED
:1048B000FA35EC01009771F6C601B7010E94CB35BD
:1048C00064C07B01EC0CFD1CC60DD71DC701B101F6
:1048D0000E94FA35BC010097A1F7C017D10709F46F
:1048E00054C0F501828193818C179D0708F044C064
:1048F000C501BE010E94B9238823F1F546C0C50158
:10490000B201A9010E94CA21EC0197FD3EC0D50168
:104910006D917C911197F201848195818C0F9D1F7F
:10492000680F791F14964D915C911597481B590B90
:10493000CB01860D971D0E94A535D50114968D914A
:104940009C911597860D971D15969C938E931497A1
:10495000ED91FC911197E80FF91F10822D913C9178
:104960002C0F3D1FF4016081718144815581C90183
:104970000E949C359E0105C0D50114962D913C9155
:1049800015972150304037FFBACFDF91CF911F915B
:104990000F91FF90EF90DF90CF90BF90AF909F90DE
:1049A0008F907F906F905F904F903F902F900895E1
:1049B000CF93DF93EC0188819981892B29F08A813B
:1049C0009B818617970760F4CE010E94B923882344
:1049D00041F08C819D81892B19F4E881F981108245
:1049E00081E0DF91CF910895EF92FF920F931F9393
:1049F000CF93DF93EC017B016C817D81E114F104A5
:104A0000C1F04115510599F08A01060F171FB80131
:104A10000E94D824882369F0888199812C813D8166
:104A2000820F931FB7010E94CB351D830C8381E059
:104A300001C080E0DF91CF911F910F91FF90EF9027
:104A40000895EF92FF920F931F93DF93CF93CDB70B
:104A5000DEB72B970FB6F894DEBF0FBECDBF7C013B
:104A6000CB01BA018E010F5F1F4FA8012AE030E091
:104A70000E947E36F80101900020E9F73197E01B93
:104A8000F10BC701B801AF010E94F4242B960FB6B9
:104A9000F894DEBF0FBECDBFCF91DF911F910F9174
:104AA000FF90EF900895EF92FF920F931F93DF9383
:104AB000CF93CDB7DEB72C970FB6F894DEBF0FBEFD
:104AC000CDBF7C01CB01BA018E010F5F1F4FA80142
:104AD0002AE030E00E943536F80101900020E9F725
:104AE0003197E01BF10BC701B801AF010E94F4241C
:104AF0002C960FB6F894DEBF0FBECDBFCF91DF91DD
:104B00001F910F91FF90EF900895EF92FF920F93F6
:104B10001F93DF93CF9300D000D000D0CDB7DEB786
:104B20007C01CB018E010F5F1F4FB8014AE050E0BE
:104B30000E94A336F80101900020E9F73197E01BAD
:104B4000F10BC701B801AF010E94F42426960FB6FD
:104B5000F894DEBF0FBECDBFCF91DF911F910F91B3
:104B6000FF90EF900895EF92FF920F931F93DF93C2
:104B7000CF93CDB7DEB727970FB6F894DEBF0FBE41
:104B8000CDBF7C01CB018E010F5F1F4FB8014AE002
:104B900050E00E941436F80101900020E9F73197A7
:104BA000E01BF10BC701B801AF010E94F424279666
:104BB0000FB6F894DEBF0FBECDBFCF91DF911F912E
:104BC0000F91FF90EF900895EF92FF920F931F9334
:104BD000DF93CF9300D000D0CDB7DEB77C01862F16
:104BE00090E08E010F5F1F4FB8014AE050E00E9435
:104BF0001436F80101900020E9F73197E01BF10B22
:104C0000C701B801AF010E94F4240F900F900F90DC
:104C10000F90CF91DF911F910F91FF90EF9008952A
:104C2000DF93CF9300D0CDB7DEB769831A82BE0180
:104C30006F5F7F4F41E050E00E94F4240F900F908F
:104C4000CF91DF9108956115710511F480E0089509
:104C5000DB010D900020E9F71197A61BB70BAD0102
:104C60000E94F4240895FB01608171814481558183
:104C70000E94F4240895CF93DF93EC0188819981F9
:104C8000009711F00E944834198218821D821C82FC
:104C90001B821A82DF91CF9108950F931F93182FD3
:104CA000092F0E942125882321F4812F902F0E9413
:104CB0003B26812F902F1F910F9108950F931F93E3
:104CC000182F092F0E945325882321F4812F902F1C
:104CD0000E943B26812F902F1F910F9108950F93D3
:104CE0001F93182F092F0E948525882321F4812FD7
:104CF000902F0E943B26812F902F1F910F91089596
:104D00000F931F93182F092F0E94B325882321F496
:104D1000812F902F0E943B26812F902F1F910F9162
:104D200008950F931F93182F092F0E94E4258823BD
:104D300021F4812F902F0E943B26812F902F1F91CD
:104D40000F9108950F931F93182F092F0E9410267B
:104D5000882321F4812F902F0E943B26812F902FB2
:104D60001F910F9108950F931F93182F092F61150D
:104D7000710561F0DB010D900020E9F71197A61B8A
:104D8000B70BAD010E94F424882321F4812F902FCA
:104D90000E943B26812F902F1F910F9108950F9312
:104DA0001F93182F092FFB01608171814481558168
:104DB0000E94F424882321F4812F902F0E943B2607
:104DC000812F902F1F910F910895EF92FF920F93D3
:104DD0001F93CF93DF93EC017B018A01BA010E94FC
:104DE000D824882321F4CE010E943B2607C01D83CE
:104DF0000C8388819981B7010E94CB35CE01DF9168
:104E0000CF911F910F91FF90EF900895CF93DF9373
:104E1000EC01198218821B821A821D821C821E825A
:104E20006115710551F0DB010D900020E9F7119734
:104E3000A61BB70BAD010E94E526DF91CF91089527
:104E4000CF93DF93EC01198218821B821A821D8294
:104E50001C821E826115710551F0DB010D9000204E
:104E6000E9F71197A61BB70BAD010E94E526DF916C
:104E7000CF9108950F931F93182F092F6115710576
:104E800059F0DB010D900020E9F71197A61BB70B35
:104E9000AD010E94E52602C00E943B26812F902F83
:104EA0001F910F910895EF92FF920F931F93DF933D
:104EB000CF93CDB7DEB7A1970FB6F894DEBF0FBE84
:104EC000CDBF8C01FC0111821082138212821582E7
:104ED00014821682CB01BA017E010894E11CF11CF8
:104EE000A70130E00E947E36C801B7010E943A2730
:104EF000A1960FB6F894DEBF0FBECDBFCF91DF9164
:104F00001F910F91FF90EF900895EF92FF920F93F2
:104F10001F93DF93CF93CDB7DEB7A1970FB6F89469
:104F2000DEBF0FBECDBF8C01FC0111821082138247
:104F30001282158214821682CB01BA017E01089476
:104F4000E11CF11CA70130E00E947E36C801B701C8
:104F50000E943A27A1960FB6F894DEBF0FBECDBFD0
:104F6000CF91DF911F910F91FF90EF900895EF92F5
:104F7000FF920F931F93DF93CF93CDB7DEB7A29726
:104F80000FB6F894DEBF0FBECDBF8C01FC011182BD
:104F9000108213821282158214821682CB01BA010A
:104FA0007E010894E11CF11CA70130E00E94353617
:104FB000C801B7010E943A27A2960FB6F894DEBF47
:104FC0000FBECDBFCF91DF911F910F91FF90EF905A
:104FD0000895EF92FF920F931F93DF93CF93CDB776
:104FE000DEB7A2970FB6F894DEBF0FBECDBF8C011F
:104FF000FC011182108213821282158214821682A1
:10500000CB01BA017E010894E11CF11CA70130E03C
:105010000E943536C801B7010E943A27A2960FB602
:10502000F894DEBF0FBECDBFCF91DF911F910F91DE
:10503000FF90EF900895EF92FF920F931F93DF93ED
:10504000CF93CDB7DEB761970FB6F894DEBF0FBE32
:10505000CDBF8C01CB01F801118210821382128224
:105060001582148216827E010894E11CF11CB7019E
:1050700050E00E94A336C801B7010E943A2761960A
:105080000FB6F894DEBF0FBECDBFCF91DF911F9159
:105090000F91FF90EF900895EF92FF920F931F935F
:1050A000DF93CF93CDB7DEB761970FB6F894DEBF2D
:1050B0000FBECDBF8C01CB01F8011182108213828B
:1050C00012821582148216827E010894E11CF11C62
:1050D000B70150E00E94A336C801B7010E943A27E9
:1050E00061960FB6F894DEBF0FBECDBFCF91DF91B2
:1050F0001F910F91FF90EF900895EF92FF920F9301
:105100001F93DF93CF93CDB7DEB762970FB6F894B6
:10511000DEBF0FBECDBF8C01CB01F8011182108222
:10512000138212821582148216827E010894E11C79
:10513000F11CB70150E00E941436C801B7010E946B
:105140003A2762960FB6F894DEBF0FBECDBFCF915F
:10515000DF911F910F91FF90EF900895EF92FF92D2
:105160000F931F93DF93CF93CDB7DEB762970FB640
:10517000F894DEBF0FBECDBF8C01CB01F8011182C8
:105180001082138212821582148216827E01089484
:10519000E11CF11CB70150E00E941436C801B701B0
:1051A0000E943A2762960FB6F894DEBF0FBECDBFBD
:1051B000CF91DF911F910F91FF90EF900895EF92A3
:1051C000FF920F931F93DF93CF93CDB7DEB729974D
:1051D0000FB6F894DEBF0FBECDBF8C01862FF8014D
:1051E000118210821382128215821482168290E03C
:1051F0007E010894E11CF11CB70150E00E94A33627
:10520000C801B7010E943A2729960FB6F894DEBF6D
:105210000FBECDBFCF91DF911F910F91FF90EF9007
:105220000895EF92FF920F931F93DF93CF93CDB723
:10523000DEB729970FB6F894DEBF0FBECDBF8C0145
:10524000862FF80111821082138212821582148235
:10525000168290E07E010894E11CF11CB70150E039
:105260000E94A336C801B7010E943A2729960FB6BB
:10527000F894DEBF0FBECDBFCF91DF911F910F918C
:10528000FF90EF900895DF93CF9300D0CDB7DEB7B6
:10529000FC011182108213821282158214821682FE
:1052A00069831A82BE016F5F7F4F0E943A270F9079
:1052B0000F90CF91DF910895DF93CF9300D0CDB7BA
:1052C000DEB7FC01118210821382128215821482D1
:1052D000168269831A82BE016F5F7F4F0E943A2750
:1052E0000F900F90CF91DF910895BF92CF92DF92F0
:1052F000EF92FF920F931F93CF93DF93082FB92E56
:105300006B017A01E9012417350710F4EA017901EC
:10531000802F9B2D62E172E00E940627D601149631
:105320008D919C9115978E159F05D0F08C179D0738
:1053300008F4EC01D601ED91FC911197EC0FFD1FE3
:10534000108110826D917C916E0D7F1D802F9B2DA1
:105350000E943A27D601ED91FC91EC0FFD1F1083BE
:10536000802F9B2DDF91CF911F910F91FF90EF9098
:10537000DF90CF90BF9008950F931F938C01FB0196
:10538000248135810E947529C8011F910F910895CC
:10539000CF93DF93EC01FB018617970761F06081E3
:1053A00071816115710529F0448155810E94E526BE
:1053B00002C00E943B26CE01DF91CF910895FC01EF
:1053C00011821082138212821582148216820E9428
:1053D000C8290895FC01118210821382128215825D
:1053E000148216820E94C8290895FC01808191814F
:1053F0000E9448340895FC01808191810E944834C4
:105400000895FC0120E030E08081882311F421E040
:1054100030E0C9010895FC0181E08083089508957A
:1054200008950E94483408950E949E3308951F9263
:105430000F920FB60F9211242F933F938F939F9348
:10544000AF93BF938091100590911105A091120523
:10545000B0911305309114050196A11DB11D232FA4
:105460002D5F2D3720F02D570196A11DB11D2093E2
:1054700014058093100590931105A0931205B09325
:10548000130580910C0590910D05A0910E05B0912A
:105490000F050196A11DB11D80930C0590930D057C
:1054A000A0930E05B0930F05BF91AF919F918F917F
:1054B0003F912F910F900FBE0F901F9018958FB7AF
:1054C000F8942091100530911105409112055091EA
:1054D00013058FBFB901CA0108959FB7F8942091B1
:1054E0000C0530910D0540910E0550910F0586B5C4
:1054F000A89B06C08F3F21F02F5F3F4F4F4F5F4F5C
:105500009FBF542F432F322F2227280F311D411DBB
:10551000511D82E0220F331F441F551F8A95D1F77A
:10552000B901CA0108959B01AC017FB7F89480913D
:105530000C0590910D05A0910E05B0910F0566B573
:10554000A89B05C06F3F19F00196A11DB11D7FBF3B
:10555000BA2FA92F982F8827860F911DA11DB11D45
:1055600062E0880F991FAA1FBB1F6A95D1F7BC0183
:105570002DC0FFB7F89480910C0590910D05A09176
:105580000E05B0910F05E6B5A89B05C0EF3F19F0D9
:105590000196A11DB11DFFBFBA2FA92F982F8827F3
:1055A0008E0F911DA11DB11DE2E0880F991FAA1F4A
:1055B000BB1FEA95D1F7861B970B885E9340C8F214
:1055C000215030404040504068517C4F21153105FA
:1055D0004105510571F60895019739F0880F991F1B
:1055E000880F991F02970197F1F70895789484B571
:1055F000826084BD84B5816084BD85B5826085BDCF
:1056000085B5816085BDEEE6F0E0808181608083B4
:10561000E1E8F0E010828081826080838081816097
:105620008083E0E8F0E0808181608083E1EBF0E05E
:10563000808184608083E0EBF0E080818160808302
:10564000EAE7F0E0808184608083808182608083EB
:105650008081816080838081806880831092C10016
:105660000895CF93DF93482F50E0CA018A5C9D4F85
:10567000FC0134914E5D5D4FFA018491882369F1FC
:1056800090E0880F991FFC01EC5FFD4FA591B4914C
:10569000FC01E25FFD4FC591D491662351F42FB711
:1056A000F8948C91932F909589238C9388818923EA
:1056B0000BC0623061F42FB7F8948C91932F9095C2
:1056C00089238C938881832B88832FBF06C09FB743
:1056D000F8948C91832B8C939FBFDF91CF91089589
:1056E000482F50E0CA01865B9D4FFC012491CA01FE
:1056F0008A5C9D4FFC0194914E5D5D4FFA0134919F
:10570000332309F440C0222351F1233071F02430B7
:1057100028F42130A1F0223011F514C02630B1F068
:105720002730C1F02430D9F404C0809180008F77F5
:1057300003C0809180008F7D8093800010C084B56D
:105740008F7702C084B58F7D84BD09C08091B00081
:105750008F7703C08091B0008F7D8093B000E32FDE
:10576000F0E0EE0FFF1FE25FFD4FA591B4912FB760
:10577000F894662321F48C919095892302C08C9132
:10578000892B8C932FBF0895682F70E0CB01865B27
:105790009D4FFC012491CB018A5C9D4FFC014491FB
:1057A0006E5D7D4FFB019491992319F420E030E068
:1057B0003CC0222351F1233071F0243028F42130F1
:1057C000A1F0223011F514C02630B1F02730C1F01D
:1057D0002430D9F404C0809180008F7703C0809179
:1057E00080008F7D8093800010C084B58F7702C0C9
:1057F00084B58F7D84BD09C08091B0008F7703C0D0
:105800008091B0008F7D8093B000892F90E0880F49
:10581000991F885E9D4FFC01A591B4918C9120E069
:1058200030E0842311F021E030E0C9010895EF92C7
:10583000FF920F931F937B018C0120E030E040E04A
:105840005FE40E94C32F88238CF0C801B70120E0D9
:1058500030E040E05FE40E948F2D0E94DC309B012D
:10586000AC01205030404040504806C0C801B7014C
:105870000E94DC309B01AC01B901CA011F910F915C
:10588000FF90EF900895A0E0B0E0E9E4FCE20C9412
:105890003137DC012B01FA019C91923008F439C1B7
:1058A000EB018881823008F433C1943069F484308C
:1058B00009F02FC111969C9111978981981709F4CD
:1058C00028C1A3E1B2E025C1843009F421C18230AE
:1058D000A9F4923009F01DC19A01AD0188E0EA01F6
:1058E0000990AE01E90109929E018150C1F7E201E0
:1058F000898111969C918923818308C1923009F492
:1059000007C112962D903C901397EB018A819B81E1
:105910001496AD90BD90CD90DC901797EC80FD80F3
:105920000E811F819101281B390BB90137FF04C07B
:1059300066277727621B730B603271050CF061C01C
:10594000121613066CF537014801062E04C0969412
:105950008794779467940A94D2F721E030E040E08E
:1059600050E004C0220F331F441F551F6A95D2F721
:1059700021503040404050402E213F2140235123B0
:10598000211531054105510521F021E030E040E0CD
:1059900050E079018A01E628F728082919293CC036
:1059A000232BD1F1260E371E35014601062E04C0E9
:1059B00096948794779467940A94D2F721E030E024
:1059C00040E050E004C0220F331F441F551F6A956A
:1059D000D2F721503040404050402A213B214C21F9
:1059E0005D21211531054105510521F021E030E00F
:1059F00040E050E059016A01A628B728C828D928F4
:105A00000BC0821593052CF01C01AA24BB24650150
:105A100003C0EE24FF24870111969C91D2011196B8
:105A20008C91981709F445C0992339F0A801970182
:105A30002A193B094C095D0906C0A60195012E19DA
:105A40003F09400B510B57FD08C01182338222825F
:105A500024833583468357831DC081E0818333824D
:105A6000228288279927DC01821B930BA40BB50B9C
:105A700084839583A683B7830DC0220F331F441FF1
:105A8000551F2483358346835783828193810197F1
:105A9000938382832481358146815781DA01C9014C
:105AA0000197A109B1098F5F9F4FAF4FBF4328F303
:105AB0000BC0918333822282EA0CFB1C0C1D1D1D3E
:105AC000E482F5820683178383E080832481358115
:105AD0004681578157FF1AC0C901AA2797FDA09593
